:020000040800F2
:10400000000003201D520008555000085B500008B6
:1040100061500008675000086D5000080000000063
:1040200000000000000000000000000073500008C5
:1040300081500008000000008F5000089D500008CB
:104040006D5200086D5200086D5200086D52000854
:104050006D5200086D5200086D5200086D52000844
:104060006D5200086D5200086D5200086D52000834
:104070006D5200086D5200086D5200086D52000824
:104080006D5200086D5200086D5200086D52000814
:104090006D5200086D5200086D5200086D52000804
:1040A0006D5200086D5200086D5200086D520008F4
:1040B0006D5200086D5200086D5200086D520008E4
:1040C0006D5200086D5200086D5200086D520008D4
:1040D0006D5200086D5200086D5200086D520008C4
:1040E0006D5200086D5200086D5200086D520008B4
:1040F0006D5200086D5200086D5200086D520008A4
:104100006D5200086D5200086D5200086D52000893
:104110006D5200086D5200086D5200086D52000883
:104120006D5200086D5200086D5200086D52000873
:104130006D5200086D5200086D5200086D52000863
:104140006D5200086D5200086D5200086D52000853
:104150006D5200086D5200086D5200086D52000843
:104160006D5200086D5200086D5200086D52000833
:104170006D5200086D5200086D52000800000000EA
:104180006D5200086D5200086D5200086D52000813
:104190006D5200086D5200086D5200086D52000803
:0C41A0006D5200086D5200086D520008BE
:1041AC0010B5054C237833B9044B13B10448AFF365
:1041BC0000800123237010BD80000020000000004F
:1041CC005089000808B5034B1BB103490348AFF3F2
:1041DC00008008BD00000000840000205089000809
:1041EC0053B94AB9002908BF00281CBF4FF0FF3152
:1041FC004FF0FF3000F072B9ADF1080C6DE904CE50
:10420C0000F006F8DDF804E0DDE9022304B07047A5
:10421C002DE9F047089E04468846002B4BD18A4274
:10422C00154667D9B2FA82F24AB1C2F1200701FAF7
:10423C0002F320FA07F7954047EA030894404FEA47
:10424C00154E230CB8FBFEF71FFA85FC0EFB1788E6
:10425C0043EA084307FB0CF1994209D9EB1807F123
:10426C00FF3080F01B81994240F21881023F2B44B1
:10427C005B1AA4B2B3FBFEF00EFB103344EA03440A
:10428C0000FB0CFCA44509D92C1900F1FF3380F07C
:10429C000781A44540F2048102382C4440EA0740CF
:1042AC00A4EB0C0400271EB1D4400023C6E9004344
:1042BC003946BDE8F0878B4209D9002E00F0EB801F
:1042CC000027C6E9000138463946BDE8F087B3FA45
:1042DC0083F7002F47D18B4202D3824200F2FA803F
:1042EC00841A61EB030301209846002EE0D0C6E946
:1042FC000048DDE702B9FFDEB2FA82F2002A40F094
:10430C008F80491B4FEA154E1FFA85F80127B1FB28
:10431C00FEFC230C0EFB1C1143EA014308FB0CF1C1
:10432C00994207D9EB180CF1FF3002D2994200F2F6
:10433C00CD808446591AA3B2B1FBFEF00EFB1014CB
:10434C0043EA044408FB00F8A04507D92C1900F1F6
:10435C00FF3302D2A04500F2B6801846A4EB080445
:10436C0040EA0C409FE7C7F1200CBB4022FA0CFE40
:10437C004EEA030E01FA07F420FA0CF521FA0CF3BD
:10438C004FEA1E482543B3FBF8F92C0C08FB1933F4
:10439C001FFA8EFA44EA034309FB0AF49C4202FA20
:1043AC0007F200FA07F10BD91EEB030309F1FF30FA
:1043BC0080F087809C4240F28480A9F1020973440A
:1043CC001B1BADB2B3FBF8F008FB103345EA0344FA
:1043DC0000FB0AFAA24508D91EEB040400F1FF33D6
:1043EC006BD2A24569D90238744440EA0940A0FB5B
:1043FC000289A4EB0A044C45C2464B4654D351D017
:10440C00002E69D0B1EB0A0564EB030404FA0CFC32
:10441C00FD40FC404CEA0505C6E90054002747E77F
:10442C00C2F1200320FA03F7954001FA02F021FAB9
:10443C0003F34FEA154E3843010CB3FBFEF71FFA9A
:10444C0085F80EFB173341EA034107FB08F38B4257
:10445C0004FA02F407D9691807F1FF3C2FD28B42FA
:10446C002DD9023F2944CB1A81B2B3FBFEF00EFBCF
:10447C00103341EA034100FB08F38B4207D969185A
:10448C0000F1FF3C17D28B4215D902382944C91AC6
:10449C0040EA07473BE73746304609E70746E7E679
:1044AC001846FBE64145ABD2B8EB020A69EB0E02AB
:1044BC0001381346A4E76046E9E7184695E76746D6
:1044CC00D1E781467CE702382C4447E7ACF1020C7B
:1044DC002B442FE7384608E73746E9E6704700BF1C
:1044EC0080B500AF00F0BEFE00F04EF800F060F9B1
:1044FC0000F034F900F0BAF800F00AF91B4801F0AA
:10450C0021F91B4803F012FE01211A4803F03EFA70
:10451C000346002B02D0012B14D0F5E7164803F00C
:10452C0005FE00BF0021114801F03DFB0346002BA6
:10453C00F8D0124B124A00210C4801F022FA00F07C
:10454C00F3FAEEE70F4803F0F1FD4FF47A7000F048
:10455C00FBFE02F08DFA00220021064803F0FCF964
:10456C0002F09AFA00F07EF900BFCDE7240100209A
:10457C0068890008F00000207C8900081C010020DC
:10458C00640100209489000880B594B000AF07F155
:10459C00200330220021184603F064FD07F10C03C0
:1045AC0000221A605A609A60DA601A610023BB60BC
:1045BC002C4B1B6C2B4A43F080531364294B1B6C04
:1045CC0003F08053BB60BB6800237B60264B1B68E9
:1045DC00254A43F440431360234B1B6803F44043C8
:1045EC007B607B680A233B620123FB6210233B63E5
:1045FC0001237B630223BB630023FB6308233B641F
:10460C00B4237B640223BB640423FB6407F1200303
:10461C00184602F0A5FA0346002B01D000F01EF953
:10462C0002F04EFA0346002B01D000F017F90F23CD
:10463C00FB6002233B6100237B614FF4A053BB6101
:10464C004FF48053FB6107F10C030521184602F06F
:10465C00FFFC0346002B01D000F000F900BF5037DF
:10466C00BD4680BD003802400070004080B58AB065
:10467C0000AF254B254A1A60234B12225A60224B5D
:10468C0000229A60204B0022DA601F4B4FF48032DC
:10469C001A611D4B4FF480125A611B4B00221A7683
:1046AC00194B00225A76184B00229A76164B002290
:1046BC00DA76154B00221A77134B00225A771248E0
:1046CC0000F064FE0346002B01D000F0C7F8012374
:1046DC003B6212237B6100233B6100233B60002380
:1046EC007B600023BB600023FB600023BB610123C4
:1046FC00FB6114237B623B461946034800F042FFE2
:10470C0000BF2837BD4680BD240100200064004056
:10471C0080B500AF0F4B104A1A600E4B00225A6046
:10472C000C4B7F229A600B4BFF22DA60094B002264
:10473C001A61084B00225A61064B00229A61054807
:10474C0003F010F80346002B01D000F087F800BFEF
:10475C0080BD00BFF00000200028004080B500AFF5
:10476C00114B124A1A60104B4FF4E1325A600E4B47
:10477C0000229A600C4B0022DA600B4B00221A616B
:10478C00094B0C225A61084B00229A61064B0022FD
:10479C00DA61054803F012F90346002B01D000F052
:1047AC005DF800BF80BD00BFAC00002000100140D0
:1047BC0080B588B000AF07F10C0300221A605A6074
:1047CC009A60DA601A610023BB60194B1B6B184AA4
:1047DC0043F001031363164B1B6B03F00103BB6027
:1047EC00BB6800237B60124B1B6B114A43F04003E8
:1047FC0013630F4B1B6B03F040037B607B68002241
:10480C004FF4C0410B4802F0FFF84FF4C043FB607B
:10481C0001233B6100237B610023BB6107F10C0387
:10482C001946044801F046FF00BF2037BD4680BD45
:10483C00003802400018024080B582B000AF7860AA
:10484C00391D4FF0FF330122034803F004F97B6854
:10485C0018460837BD4680BDAC00002080B400AFC0
:10486C0072B6FEE780B586B000AF01F017FB01F021
:10487C0047FB3B1D184601F071FD02237B603B7D1D
:10488C0003F01003002B02D000233B7501E0102332
:10489C003B753B1D184601F023FD0346002B09D048
:1048AC004FF47A7000F050FD4FF480410D4802F047
:1048BC00C4F8F5E701F050FB0346002B08D0642048
:1048CC0000F042FD4FF48041064802F0B6F8F6E7DE
:1048DC0001F032FB01F004FB01F07BFA00BF18374A
:1048EC00BD4680BD0018024080B582B000AF0A4BB7
:1048FC001B6803F480737B607B68002B03D1074833
:10490C0003F014FC02E0064803F010FC7B68184628
:10491C000837BD4680BD00BF00380140BC89000887
:10492C00D889000880B582B000AF0E4B48221A60BF
:10493C0000237B600BE00C4A7B68134419780B4A0C
:10494C007B6813440A461A707B6801337B607B6872
:10495C00042BF0D9012000F01DF900BF0837BD462B
:10496C0080BD00BF4C010020000000201001002081
:10497C0080B582B000AF6323FB7100F035F90346BC
:10498C00FB71064B51221A60054AFB79137001200A
:10499C0000F000F900BF0837BD4680BD4C01002077
:1049AC001001002080B586B000AF164B55221A605E
:1049BC000123FB75144B3B613B691B68FB60F8687A
:1049CC0000F01AF90346FB75FB7D002B0FD10F4A43
:1049DC00FB7D1370012000F0DDF8FB68BB60BB6849
:1049EC000133BB60BB687B607B68984705E0074A76
:1049FC00FB7D1370012000F0CDF800BF1837BD46C9
:104A0C0080BD00BF4C0100201C01002010010020C3
:104A1C0080B584B000AF0123FB73134BBB60BB6844
:104A2C001B687B60BB685B683B603968786800F02A
:104A3C0027F90346FB730D4B56221A60FB7B002BA8
:104A4C0003D10B4B00221A7009E0FB7B012B03D125
:104A5C00074B01221A7002E0054B12221A7000BF9C
:104A6C001037BD4680BD00BF1C0100204C0100204A
:104A7C001001002080B483B000AF064B7B607B68D4
:104A8C001A88054B1A8000BF0C37BD465DF8047BB5
:104A9C00704700BF1C0100208001002080B483B04F
:104AAC0000AF064B7B607B681B68054A136000BF38
:104ABC000C37BD465DF8047B704700BF1C0100201D
:104ACC000800002080B582B000AF0123FB710123E8
:104ADC00BB71124B4FF488721A60114B1B683B6010
:104AEC00386800F089F80346BB71BB79002B0ED1F6
:104AFC0000F00EF90346FB71FB79002B03D1094B37
:104B0C0000221A7006E0074B01221A7002E0054BD6
:104B1C0001221A7000BF0837BD4680BD4C01002031
:104B2C00080000201001002080B500AF184B1B6856
:104B3C00562B18D0562B06D8512B11D0552B1ED0D6
:104B4C00482B0AD021E0582B13D0582B0ED3762BA0
:104B5C0018D0B3F5887F0FD017E0FFF7E3FE14E011
:104B6C00FFF706FF11E0FFF753FF0EE0FFF782FFA0
:104B7C000BE0FFF793FF08E0FFF7A4FF05E0FFF75A
:104B8C0011FF02E000F0FAF800BF00BF80BD00BFCB
:104B9C006401002080B584B000AF78600023FB6016
:104BAC000CE00D4AFB6813441B781A460B4B0C495E
:104BBC000C4800F00BFEFB680133FB60FA687B6865
:104BCC009A42EED308220021034803F04BFA00BFAF
:104BDC001037BD4680BD00BF100100201801002019
:104BEC004C0100202401002080B400AF052318469E
:104BFC00BD465DF8047B704780B483B000AF78602D
:104C0C007B68B3F1005F05D37B68B3F1026F01D20F
:104C1C00002328E07B68174A934205D97B68B3F1DF
:104C2C00026F01D200231EE07B68134A934205D920
:104C3C007B68B3F1026F01D2002314E07B68B3F1FF
:104C4C00006F05D37B68B3F1026F01D200230AE039
:104C5C007B680A4A934205D97B68B3F1026F01D293
:104C6C00002300E0012318460C37BD465DF8047B99
:104C7C00704700BFFFBF0120FFFF0120FF3F024034
:104C8C0080B58AB000AF786039600023BB60012327
:104C9C0087F827303B68172B01D9122334E07B6847
:104CAC00B3F1FF3F02D03B68172B2CD83B68B3F114
:104CBC00FF3F04D10123FB6001233B610FE03B6804
:104CCC00C3F118033B623A683B6A9A4201D93B6ACA
:104CDC003B600023FB607B687B613B68BB6101F040
:104CEC00DDF80223FB6107F1080207F10C03114602
:104CFC00184601F083FA034687F8273001F0F0F8E4
:104D0C0097F8273000E0122318462837BD4680BD9F
:104D1C0090B583B000AF0123FB71164B3B6001F0E3
:104D2C00BDF8154B19683B681B684FF000041A4618
:104D3C002346022001F05EF80346FB710E4B1B6804
:104D4C00191D3B6804331B684FF000041A462346B8
:104D5C00022001F04FF80346FB71074B1B68083328
:104D6C00054A136001F0BCF8FB7918460C37BD46B8
:104D7C0090BD00BF1C0100200800002080B582B04F
:104D8C0000AF0123FB710123BB71364B1B78013340
:104D9C00DAB2344B1A70344B1B78002B18D0334BCF
:104DAC00334A1A60FFF7A0FD0346002B06D10321FE
:104DBC000420FFF765FF0346FB7105E0032110207B
:104DCC00FFF75EFF0346FB71274B00221A7001E0D0
:104DDC000023FB71FB79002B23D1264B1B88013B55
:104DEC009AB2244B1A80FFF793FF0346BB71214BF9
:104DFC001B88002B20D11B4B1B78022B05D1194B88
:104E0C0000221A700120FFF7C5FE01F031FE0022CE
:104E1C000021194802F0A0FD01F03EFE00F0D9FF80
:104E2C000AE0164B76221A60154AFB7913700120A2
:104E3C00FFF7B0FEFB7910E0104B76221A60104A97
:104E4C00BB791370074B1B78022B05D1054B002245
:104E5C001A700120FFF79EFEBB7918460837BD4635
:104E6C0080BD00BF9C0000200C000020080000202A
:104E7C000000010880010020F00000204C010020FF
:104E8C001001002080B483B000AF00237B60104B76
:104E9C005B6C0F4A43F4804353640D4B5B6C03F41F
:104EAC0080437B607B6800233B60094B1B6C084A8A
:104EBC0043F080531364064B1B6C03F080533B6030
:104ECC003B6800BF0C37BD465DF8047B704700BFE4
:104EDC000038024080B58AB000AF786007F1140347
:104EEC0000221A605A609A60DA601A617B681B684B
:104EFC00194A93422CD100233B61184B1B6C174A67
:104F0C0043F000731364154B1B6C03F000733B618F
:104F1C003B690023FB60114B1B6B104A43F00103F0
:104F2C0013630E4B1B6B03F00103FB60FB684FF428
:104F3C00C0537B610223BB610023FB6103233B62F3
:104F4C0009237B6207F114031946054801F0B2FBF3
:104F5C0000BF2837BD4680BD0064004000380240C9
:104F6C000000024080B58EB000AF786007F10803F6
:104F7C0030220021184603F075F87B681B680C4A38
:104F8C00934211D12023BB604FF400733B6307F1B4
:104F9C000803184602F028FA0346002B01D0FFF74D
:104FAC005DFC044B01221A6000BF3837BD4680BD42
:104FBC00002800403C0E474280B58AB000AF7860B4
:104FCC0007F1140300221A605A609A60DA601A61C1
:104FDC007B681B68194A93422CD100233B61184B08
:104FEC005B6C174A43F010035364154B5B6C03F076
:104FFC0010033B613B690023FB60114B1B6B104A98
:10500C0043F0010313630E4B1B6B03F00103FB60B6
:10501C00FB684FF4C0637B610223BB610023FB611F
:10502C0003233B6207237B6207F1140319460548EF
:10503C0001F040FB00BF2837BD4680BD0010014089
:10504C00003802400000024080B400AFFEE780B49C
:10505C0000AFFEE780B400AFFEE780B400AFFEE720
:10506C0080B400AFFEE780B400AF00BFBD465DF872
:10507C00047B704780B400AF00BFBD465DF8047B75
:10508C00704780B400AF00BFBD465DF8047B70472D
:10509C0080B500AF00F038F900BF80BD80B586B098
:1050AC0000AFF860B9607A6000237B610AE0AFF36F
:1050BC0000800146BB685A1CBA60CAB21A707B6980
:1050CC0001337B617A697B689A42F0DB7B68184616
:1050DC001837BD4680BD80B586B000AFF860B960AA
:1050EC007A6000237B6109E0BB685A1CBA601B78AC
:1050FC001846FFF7A1FB7B6901337B617A697B68FA
:10510C009A42F1DB7B6818461837BD4680BD80B4E7
:10511C0083B000AF78604FF0FF3318460C37BD46B4
:10512C005DF8047B704780B483B000AF7860396061
:10513C003B684FF400525A60002318460C37BD46AA
:10514C005DF8047B704780B483B000AF78600123B6
:10515C0018460C37BD465DF8047B704780B485B0AB
:10516C0000AFF860B9607A60002318461437BD466A
:10517C005DF8047B7047000080B586B000AF7860A6
:10518C00144A154BD31A7B617B693B61134B1B682B
:10519C00002B02D1114B124A1A60104B1A687B6813
:1051AC0013443A699A4207D202F032FF02460C23AA
:1051BC0013604FF0FF3309E0084B1B68FB60074B93
:1051CC001A687B681344054A1360FB681846183745
:1051DC00BD4680BD0000032000040000A00000209C
:1051EC00B001002080B400AF074BD3F88830064ADA
:1051FC0043F47003C2F88830034B044A9A6000BF32
:10520C00BD465DF8047B704700ED00E000400008EF
:10521C00DFF834D00D480E490E4A002302E0D45872
:10522C00C4500433C4188C42F9D30B4A0B4C0023E2
:10523C0001E013600432A242FBD3FFF7D3FF02F06C
:10524C00EDFEFFF74DF97047000003200000002031
:10525C0080000020808A000880000020AC01002023
:10526C00FEE7000080B500AF0E4B1B680D4A43F4FF
:10527C00007313600B4B1B680A4A43F48063136082
:10528C00084B1B68074A43F480731360032000F03B
:10529C0079FD0F2000F008F8FFF7F4FD0023184605
:1052AC0080BD00BF003C024080B582B000AF78608A
:1052BC00124B1A68124B1B7819464FF47A73B3FBD6
:1052CC00F1F3B2FBF3F3184600F087FD0346002B15
:1052DC0001D001230EE07B680F2B0AD800227968DD
:1052EC004FF0FF3000F059FD064A7B681360002335
:1052FC0000E0012318460837BD4680BD1000002091
:10530C00180000201400002080B400AF064B1B785E
:10531C001A46064B1B681344044A136000BFBD4673
:10532C005DF8047B704700BF18000020840100204A
:10533C0080B400AF034B1B681846BD465DF8047B78
:10534C00704700BF8401002080B584B000AF786046
:10535C00FFF7EEFFB8607B68FB60FB68B3F1FF3FC3
:10536C0005D0094B1B781A46FB681344FB6000BF41
:10537C00FFF7DEFF0246BB68D31AFA689A42F7D8E9
:10538C0000BF1037BD4680BD1800002080B584B02A
:10539C0000AF78607B68002B01D10123EDE07B68C6
:1053AC0093F82030DBB2002B02D17868FFF792FD26
:1053BC007B681B681A687B681B6842F001021A60E4
:1053CC00FFF7B6FFF86012E0FFF7B2FF0246FB688A
:1053DC00D31A0A2B0BD97B685B6A43F400327B68C7
:1053EC005A627B68052283F820200123C5E07B6884
:1053FC001B685B6803F00103002BE5D07B681B681E
:10540C001A687B681B6822F002021A60FFF790FF93
:10541C00F86012E0FFF78CFF0246FB68D31A0A2BE8
:10542C000BD97B685B6A43F400327B685A627B68F9
:10543C00052283F8202001239FE07B681B685B68B2
:10544C0003F00203002BE5D17B681B7E012B08D1F6
:10545C007B681B681A687B681B6842F080021A60C4
:10546C0007E07B681B681A687B681B6822F0800267
:10547C001A607B685B7E012B08D17B681B681A68FD
:10548C007B681B6842F040021A6007E07B681B686F
:10549C001A687B681B6822F040021A607B689B7E4E
:1054AC00012B08D17B681B681A687B681B6842F06B
:1054BC0020021A6007E07B681B681A687B681B680F
:1054CC0022F020021A607B68DB7E012B08D17B68FE
:1054DC001B681A687B681B6822F010021A6007E0D0
:1054EC007B681B681A687B681B6842F010021A60A4
:1054FC007B681B7F012B08D17B681B681A687B6853
:10550C001B6842F008021A6007E07B681B681A6887
:10551C007B681B6822F008021A607B685B7F012B9A
:10552C0008D17B681B681A687B681B6842F0040210
:10553C001A6007E07B681B681A687B681B6822F09E
:10554C0004021A607B689A687B68DB681A437B6884
:10555C001B691A437B685B6942EA03017B685B68E1
:10556C005A1E7B681B680A43DA617B6800225A6208
:10557C007B68012283F82020002318461037BD4693
:10558C0080BD000080B487B000AF786039607B6864
:10559C001B687B617B6893F82030FB74FB7C012BD0
:1055AC0003D0FB7C022B40F0BE80654B7B617B699A
:1055BC00D3F8003243F001027B69C3F800227B6907
:1055CC00D3F8003223F47C527B69C3F800227B6948
:1055DC00D3F800223B685B6A1B021A437B69C3F851
:1055EC0000223B685B6903F01F03012202FA03F3FC
:1055FC00FB607B69D3F81C22FB68DB431A407B6998
:10560C00C3F81C223B68DB69002B23D17B69D3F8E0
:10561C000C22FB68DB431A407B69C3F80C223B6805
:10562C00DB6819043B685B689BB23A6852691943A2
:10563C007B69483243F832103B689B6819043B681D
:10564C001B689AB23B685B690A4379694833DB0093
:10565C000B445A603B68DB69012B22D17B69D3F880
:10566C000C22FB681A437B69C3F80C223B681B684D
:10567C0019043B685B689BB23A68526919437B69B1
:10568C00483243F832103B689B6819043B68DB686E
:10569C009AB23B685B690A4379694833DB000B4477
:1056AC005A603B689B69002B09D17B69D3F80422B3
:1056BC00FB68DB431A407B69C3F8042207E07B6973
:1056CC00D3F80422FB681A437B69C3F804223B68B5
:1056DC001B69002B09D17B69D3F81422FB68DB43CF
:1056EC001A407B69C3F8142207E07B69D3F81422B3
:1056FC00FB681A437B69C3F814223B681B6A012BB5
:10570C0007D17B69D3F81C22FB681A437B69C3F869
:10571C001C227B69D3F8003223F001027B69C3F8A9
:10572C000022002306E07B685B6A43F480227B68DE
:10573C005A62012318461C37BD465DF8047B70473E
:10574C000064004080B584B000AF78607B6893F84B
:10575C002030DBB2012B2ED17B68022283F8202073
:10576C007B681B681A687B681B6822F001021A6050
:10577C00FFF7DEFDF86012E0FFF7DAFD0246FB688A
:10578C00D31A0A2B0BD97B685B6A43F400327B6813
:10579C005A627B68052283F82020012312E07B6883
:1057AC001B685B6803F00103002BE5D17B680022CA
:1057BC005A62002306E07B685B6A43F400227B6834
:1057CC005A62012318461037BD4680BD80B489B09B
:1057DC0000AFF860B9607A603B60FB6893F82030EA
:1057EC00FB77FB681B689B68BB61FB7F012B03D0BD
:1057FC00FB7F022B40F0B880BB6903F08063002B69
:10580C000AD1BB6903F00063002B05D1BB6903F01F
:10581C008053002B00F0A080BB691B0E03F0030328
:10582C007B617B69022B07D9FB685B6A43F400023E
:10583C00FB685A6201239EE001227B699A403B6817
:10584C001A60BB689B68002B0DD1BB681B685A059E
:10585C00BB68DB68F96809681A437B6918331B015C
:10586C000B441A600FE0BB685B68DA00BB689B688E
:10587C001A43BB68DB68F96809681A437B691833FB
:10588C001B010B441A60FB681968BB681A697B69B9
:10589C0018331B010B4404331A60BB681B7D012BAE
:1058AC0011D1FB681A687B6918331B01134404334C
:1058BC001B68FA68116843F480727B6918331B010A
:1058CC000B4404331A607B6807331B781A067B6819
:1058DC0006331B781B041A437B6805331B781B02A9
:1058EC0013437A68043212781046FA68116843EA56
:1058FC0000027B691B010B4403F5C6731A607B68BD
:10590C0003331B781A067B6802331B781B041A437B
:10591C007B6801331B781B0213437A68127810469C
:10592C00FA68116843EA00027B691B010B4403F51A
:10593C00C4731A60FB681A687B6918331B01134423
:10594C001B68FA68116843F001027B6918331B016C
:10595C000B441A6000230EE0FB685B6A43F40012F0
:10596C00FB685A62012306E0FB685B6A43F4802201
:10597C00FB685A62012318462437BD465DF8047B48
:10598C00704780B487B000AFF860B9607A603B6054
:10599C00FB6893F82030FB75FB7D012B03D0FB7D5E
:1059AC00022B40F0F380BB68002B0ED1FB681B6808
:1059BC00DB6803F00303002B16D1FB685B6A43F42E
:1059CC000012FB685A620123E7E0FB681B681B6945
:1059DC0003F00303002B07D1FB685B6A43F400124E
:1059EC00FB685A620123D8E0FB681A68BB681B335A
:1059FC001B0113441B6803F004027B689A607B68EC
:105A0C009B68002B0CD1FB681A68BB681B331B010D
:105A1C0013441B685B0DC3F30A027B681A600BE02E
:105A2C00FB681A68BB681B331B0113441B68DB083B
:105A3C0023F060427B685A60FB681A68BB681B33B2
:105A4C001B0113441B6803F002027B68DA60FB68DD
:105A5C001A68BB681B331B01134404331B6803F027
:105A6C000F027B681A61FB681A68BB681B331B0149
:105A7C00134404331B681B0ADAB27B689A61FB6817
:105A8C001A68BB681B331B01134404331B681B0CC3
:105A9C009AB27B685A61FB681A68BB681B01134495
:105AAC0003F5DC731B68DAB23B681A70FB681A6882
:105ABC00BB681B01134403F5DC731B681A0A3B68B3
:105ACC000133D2B21A70FB681A68BB681B0113440D
:105ADC0003F5DC731B681A0C3B680233D2B21A70E4
:105AEC00FB681A68BB681B01134403F5DC731B6865
:105AFC001A0E3B680333D2B21A70FB681A68BB6883
:105B0C001B01134403F5DE731A683B680433D2B2ED
:105B1C001A70FB681A68BB681B01134403F5DE732B
:105B2C001B681A0A3B680533D2B21A70FB681A68F4
:105B3C00BB681B01134403F5DE731B681A0C3B682E
:105B4C000633D2B21A70FB681A68BB681B01134487
:105B5C0003F5DE731B681A0E3B680733D2B21A705A
:105B6C00BB68002B08D1FB681B68DA68FB681B68F4
:105B7C0042F02002DA6007E0FB681B681A69FB68D8
:105B8C001B6842F020021A61002306E0FB685B6A86
:105B9C0043F48022FB685A62012318461C37BD4629
:105BAC005DF8047B704780B485B000AF78603960D5
:105BBC000023FB607B6893F82030FB72FB7A012B8F
:105BCC0002D0FB7A022B0FD13B68002B06D17B68ED
:105BDC001B68DB6803F00303FB6005E07B681B6854
:105BEC001B6903F00303FB60FB6818461437BD46C2
:105BFC005DF8047B7047000080B485B000AF78601E
:105C0C007B6803F00703FB600C4BDB68BB60BA6876
:105C1C004FF6FF031340BB60FB681A02BB681343CB
:105C2C0043F0BF6343F40033BB60044ABB68D360EA
:105C3C0000BF1437BD465DF8047B704700ED00E0F3
:105C4C0080B400AF044BDB681B0A03F00703184653
:105C5C00BD465DF8047B704700ED00E080B483B076
:105C6C0000AF03463960FB7197F90730002B0ADB54
:105C7C003B68DAB20C4997F907301201D2B20B44E7
:105C8C0083F800230AE03B68DAB20849FB7903F099
:105C9C000F03043B1201D2B20B441A7600BF0C372F
:105CAC00BD465DF8047B704700E100E000ED00E0CC
:105CBC0080B489B000AFF860B9607A60FB6803F01B
:105CCC000703FB61FB69C3F10703042B28BF042303
:105CDC00BB61FB690433062B02D9FB69033B00E073
:105CEC0000237B614FF0FF32BB6902FA03F3DA4306
:105CFC00BB681A407B699A404FF0FF317B6901FA0F
:105D0C0003F3D9437B680B40134318462437BD4635
:105D1C005DF8047B7047000080B400AFBFF34F8F79
:105D2C00054BDB6803F4E0620349044B1343CB607F
:105D3C00BFF34F8F00BFFDE700ED00E00400FA0554
:105D4C0080B582B000AF78607B68013BB3F1807F97
:105D5C0001D301230FE00A4A7B68013B53600F21FA
:105D6C004FF0FF30FFF77AFF054B00229A60044B8F
:105D7C0007221A60002318460837BD4680BD00BFB5
:105D8C0010E000E080B582B000AF78607868FFF773
:105D9C0033FF00BF0837BD4680BD80B586B000AF6D
:105DAC000346B9607A60FB7300237B61FFF748FF01
:105DBC0078617A68B9687869FFF77AFF024697F9D3
:105DCC000F3011461846FFF749FF00BF1837BD4684
:105DDC0080BD80B500AFFFF79FFF80B582B000AFEC
:105DEC0078607868FFF7ACFF034618460837BD4665
:105DFC0080BD000080B586B000AFF860B960C7E91F
:105E0C0000230123FB75234B1B7E012B01D10223A5
:105E1C003BE0204B01221A764CF2503000F0B0F8E7
:105E2C000346FB75FB7D002B2BD1FB68002B05D1AA
:105E3C003B781946B86800F059F916E0FB68012B5D
:105E4C0005D13B881946B86800F02CF90DE0FB68C9
:105E5C00022B05D13B681946B86800F001F904E043
:105E6C00D7E90023B86800F0CBF84CF2503000F0C2
:105E7C0087F80346FB75084B1B69074A23F001039F
:105E8C001361044B00221A76FB7D18461837BD4669
:105E9C0080BD00BF88010020003C024080B483B06C
:105EAC0000AF0023FB710B4B1B69002B0BDA094B6A
:105EBC00094A5A60074B094A5A60064B1B69002B6A
:105ECC0001DA0123FB71FB7918460C37BD465DF8EE
:105EDC00047B7047003C024023016745AB89EFCD42
:105EEC0080B400AF054B1B69044A43F000431361B7
:105EFC0000231846BD465DF8047B7047003C024009
:105F0C0080B400AF094B5B6903F00103002B07D091
:105F1C00064B074A9A60054B064A9A60002300E03C
:105F2C0001231846BD465DF8047B7047003C0240D7
:105F3C003B2A19087F6E5D4C80B400AF054B5B6942
:105F4C00044A43F00103536100231846BD465DF833
:105F5C00047B7047003C024080B500AF074B1B78B8
:105F6C00DBB2064A43F00203DBB213704CF2503042
:105F7C0000F006F80346184680BD00BF143C0240F2
:105F8C0080B584B000AF78600023FB601A4B002210
:105F9C00DA61FFF7CDF9F86010E07B68B3F1FF3FF1
:105FAC000CD07B68002B07D0FFF7C2F90246FB68C8
:105FBC00D31A7A689A4201D2032319E00F4BDB689B
:105FCC0003F48033002BE8D10C4BDB6803F00103A6
:105FDC00002B02D0094B0122DA60084BDB6803F47A
:105FEC00F973002B03D000F0A3F8012300E0002389
:105FFC0018461037BD4680BD88010020003C024089
:10600C0090B484B000AFF860C7E90023134B1B6950
:10601C00124A23F440731361104B1B690F4A43F46B
:10602C00407313610D4B1B690C4A43F00103136160
:10603C00FB683A681A60BFF36F8FD7E900124FF014
:10604C0000034FF0000413000024FA6804321360BC
:10605C0000BF1037BD4690BC704700BF003C0240EB
:10606C0080B483B000AF786039600D4B1B690C4A6B
:10607C0023F4407313610A4B1B69094A43F4007300
:10608C001361074B1B69064A43F0010313617B68DC
:10609C003A681A6000BF0C37BD465DF8047B704748
:1060AC00003C024080B483B000AF78600B467B802C
:1060BC000D4B1B690C4A23F4407313610A4B1B698B
:1060CC00094A43F480731361074B1B69064A43F07A
:1060DC00010313617B687A881A8000BF0C37BD46B8
:1060EC005DF8047B704700BF003C024080B483B075
:1060FC0000AF78600B46FB700C4B1B690B4A23F40A
:10610C0040731361094B094A1B691361074B1B69E7
:10611C00064A43F0010313617B68FA781A7000BFDA
:10612C000C37BD465DF8047B704700BF003C024055
:10613C0080B400AF2F4BDB6803F01003002B08D0AA
:10614C002D4BDB6943F010032B4AD361294B1022F2
:10615C00DA60284BDB6803F02003002B08D0264BB9
:10616C00DB6943F00803244AD361224B2022DA6016
:10617C00204BDB6803F04003002B08D01E4BDB697F
:10618C0043F004031C4AD3611A4B4022DA60194BCA
:10619C00DB6803F08003002B08D0174BDB6943F05E
:1061AC000203154AD361134B8022DA60114BDB6872
:1061BC0003F48073002B09D00F4BDB6943F0010310
:1061CC000D4AD3610B4B4FF48072DA60094BDB68DC
:1061DC0003F00203002B08D0074BDB6943F02003CC
:1061EC00054AD361034B0222DA6000BFBD465DF85D
:1061FC00047B7047003C02408801002080B584B0CD
:10620C0000AF786039600123FB730023BB60324B15
:10621C001B7E012B01D102235AE02F4B01221A764F
:10622C004CF25030FFF7ACFE0346FB73FB7B002BAC
:10623C004AD13B684FF0FF321A607B681B68012B18
:10624C0017D17B681B69DAB27B685B68194610460C
:10625C0000F0A4F84CF25030FFF792FE0346FB73AB
:10626C001E4B1B691D4A23F4004323F004031361E6
:10627C0028E07B689B68BB601CE07B681B69DBB219
:10628C001946B86800F0C4F84CF25030FFF778FEAD
:10629C000346FB73114B1B69104A23F0FA0313617D
:1062AC00FB7B002B03D03B68BA681A600AE0BB6822
:1062BC000133BB607B68DA687B689B681344BA68FF
:1062CC009A42DAD300F0B0F9034B00221A76FB7B2A
:1062DC0018461037BD4680BD88010020003C0240A6
:1062EC0080B584B000AF78600123FB737B681B68BA
:1062FC0003F00103002B1ED07B685B68012B0DD1D2
:10630C007B689B8918467B68DB8919467B689B6890
:10631C001A4600F0F3F80346FB730CE07B689B898C
:10632C0018467B68DB8919467B689B681A4600F027
:10633C002DF90346FB737B681B6803F00203002BEB
:10634C0006D07B681B7C184600F0B0F80346FB7344
:10635C00FB7B18461037BD4680BD000080B483B06F
:10636C0000AF78600A4B1B889AB27B689A81094B04
:10637C001B889AB27B68DA81074B1B78DAB27B6890
:10638C001A7400BF0C37BD465DF8047B704700BF24
:10639C00163C02401A3C0240143C024080B483B0CC
:1063AC0000AF03463960FB71184B1B69174A23F485
:1063BC00407313613B68032B08D1144B1B69134AC0
:1063CC0043F4004343F0040313610FE03B68012BDB
:1063DC0006D10E4B1B690D4A43F00403136105E013
:1063EC000A4B1B69094A43F400431361074B1A69B2
:1063FC00FB791B021343054A43F48033136100BF3E
:10640C000C37BD465DF8047B704700BF003C024072
:10641C0080B485B000AF78600B46FB700023FB6046
:10642C00FB78002B02D10023FB6010E0FB78012BE2
:10643C0003D14FF48073FB6009E0FB78022B03D18E
:10644C004FF40073FB6002E04FF44073FB607B6819
:10645C000B2B02D97B6804337B60134B1B69124AEC
:10646C0023F440731361104B1A690F49FB681343F3
:10647C000B610D4B1B690C4A23F0F80313610A4B9B
:10648C001A697B68DB001343074A43F0020313616C
:10649C00054B1B69044A43F48033136100BF143766
:1064AC00BD465DF8047B7047003C024080B584B06B
:1064BC0000AF0346FB710023FB734CF25030FFF727
:1064CC005FFD0346FB73FB7B002B0FD10A4B1B7844
:1064DC00DBB2094A23F01003DBB21370064B1B78B6
:1064EC00DAB20549FB791343DBB20B70FB7B184620
:1064FC001037BD4680BD00BF143C024080B586B04D
:10650C0000AFF860B9607A600023FB754CF2503034
:10651C00FFF736FD0346FB75FB7D002B2DD17B6809
:10652C00012B02D07B68032B09D1164B1B889AB226
:10653C00FB689BB2134913439BB20B8008E0124BD0
:10654C001B889AB2BB689BB20F4913439BB20B805A
:10655C007B68032B11D14CF25030FFF711FD034631
:10656C00FB75FB7D002B08D1074B1B889AB2BB68CF
:10657C009BB2054913439BB20B80FB7D1846183721
:10658C00BD4680BD163C02401A3C024080B586B028
:10659C0000AFF860B9607A600023FB754CF25030A4
:1065AC00FFF7EEFC0346FB75FB7D002B33D17B68BC
:1065BC00012B02D07B68032B0BD1194B1B889AB291
:1065CC00FB689BB2DB439BB2154913409BB20B801B
:1065DC000AE0144B1B889AB2BB689BB2DB439BB29C
:1065EC00104913409BB20B807B68032B13D14CF2E8
:1065FC005030FFF7C5FC0346FB75FB7D002B0AD121
:10660C00084B1B889AB2BB689BB2DB439BB2054913
:10661C0013409BB20B80FB7D18461837BD4680BDDE
:10662C00163C02401A3C024080B400AF204B1B6861
:10663C0003F40073002B17D01D4B1B681C4A23F46A
:10664C00007313601A4B1B68194A43F40063136000
:10665C00174B1B68164A23F400631360144B1B681A
:10666C00134A43F400731360114B1B6803F48063EB
:10667C00002B17D00E4B1B680D4A23F4806313605C
:10668C000B4B1B680A4A43F480531360084B1B687E
:10669C00074A23F480531360054B1B68044A43F4E8
:1066AC008063136000BFBD465DF8047B704700BF7C
:1066BC00003C024080B489B000AF786039600023A0
:1066CC007B6100233B610023BB610023FB6177E10D
:1066DC000122FB6902FA03F37B613B681B687A6950
:1066EC0013403B613A697B699A4240F066813B6892
:1066FC005B6803F00303012B05D03B685B6803F078
:10670C000303022B30D17B689B68BB61FB695B0088
:10671C00032202FA03F3DB43BA691340BB613B6803
:10672C00DA68FB695B0002FA03F3BA691343BB61D5
:10673C007B68BA699A607B685B68BB610122FB6904
:10674C0002FA03F3DB43BA691340BB613B685B6835
:10675C001B0903F00102FB6902FA03F3BA69134344
:10676C00BB617B68BA695A603B685B6803F00303E2
:10677C00032B17D07B68DB68BB61FB695B000322D2
:10678C0002FA03F3DB43BA691340BB613B689A68B6
:10679C00FB695B0002FA03F3BA691343BB617B68C4
:1067AC00BA69DA603B685B6803F00303022B23D100
:1067BC00FB69DA087B68083253F82230BB61FB694D
:1067CC0003F007039B000F2202FA03F3DB43BA69C1
:1067DC001340BB613B681A69FB6903F007039B001C
:1067EC0002FA03F3BA691343BB61FB69DA087B68ED
:1067FC000832B96943F822107B681B68BB61FB69DE
:10680C005B00032202FA03F3DB43BA691340BB615A
:10681C003B685B6803F00302FB695B0002FA03F35D
:10682C00BA691343BB617B68BA691A603B685B68E1
:10683C0003F44033002B00F0C0800023FB60654B59
:10684C005B6C644A43F480435364624B5B6C03F4AB
:10685C008043FB60FB68604AFB699B08023352F87B
:10686C002330BB61FB6903F003039B000F2202FA88
:10687C0003F3DB43BA691340BB617B68574A93420D
:10688C0037D07B68564A934231D07B68554A934245
:10689C002BD07B68544A934225D07B68534A934251
:1068AC001FD07B68524A934219D07B68514A93425D
:1068BC0013D07B68504A93420DD07B684F4A934269
:1068CC0007D07B684E4A934201D1092312E00A2378
:1068DC0010E008230EE007230CE006230AE0052352
:1068EC0008E0042306E0032304E0022302E0012372
:1068FC0000E00023FA6902F0030292009340BA69A7
:10690C001343BB613449FB699B080233BA6941F8F4
:10691C0023203C4B9B68BB613B69DB43BA6913404A
:10692C00BB613B685B6803F48013002B03D0BA692E
:10693C003B691343BB61334ABB699360314BDB68E2
:10694C00BB613B69DB43BA691340BB613B685B6865
:10695C0003F40013002B03D0BA693B691343BB61EA
:10696C00284ABB69D360274B5B68BB613B69DB433F
:10697C00BA691340BB613B685B6803F40033002BBE
:10698C0003D0BA693B691343BB611E4ABB695360B0
:10699C001C4B1B68BB613B69DB43BA691340BB6191
:1069AC003B685B6803F48033002B03D0BA693B6906
:1069BC001343BB61134ABB691360FB690133FB6171
:1069CC00FB690F2B7FF684AE00BF2437BD465DF804
:1069DC00047B704700380240003801400000024040
:1069EC000004024000080240000C0240001002406B
:1069FC000014024000180240001C0240002002401B
:106A0C0000240240003C014080B483B000AF7860A9
:106A1C000B467B8013467B707B78002B03D07A88E7
:106A2C007B689A6103E07B881A047B689A6100BFDB
:106A3C000C37BD465DF8047B704780B485B000AF61
:106A4C0078600B467B807B685B69FB607A88FB68AF
:106A5C0013401A04FB68D9437B880B401A437B68AC
:106A6C009A6100BF1437BD465DF8047B7047000087
:106A7C0080B483B000AF064B01221A60054B1B6833
:106A8C007B607B6800BF0C37BD465DF8047B7047AC
:106A9C0020000E420070004080B483B000AF064B63
:106AAC0000221A60054B1B687B607B6800BF0C37AB
:106ABC00BD465DF8047B704720000E42007000401C
:106ACC0080B582B000AF00237B6000233B60204B7D
:106ADC001B6C1F4A43F0805313641D4B1B6C03F05B
:106AEC0080533B603B681B4B01221A60FEF720FC75
:106AFC00786009E0FEF71CFC02467B68D31AB3F5FC
:106B0C007A7F01D903231FE0134B5B6803F48033B6
:106B1C00B3F5803FEED1114B01221A60FEF708FC51
:106B2C00786009E0FEF704FC02467B68D31AB3F5E3
:106B3C007A7F01D9032307E0074B5B6803F400332A
:106B4C00B3F5003FEED1002318460837BD4680BD93
:106B5C000038024040000E420070004044000E42DB
:106B6C0080B586B000AF78607B68002B01D1012323
:106B7C0064E27B681B6803F00103002B75D0A34B08
:106B8C009B6803F00C03042B0CD0A04B9B6803F008
:106B9C000C03082B12D19D4B5B6803F48003B3F5F7
:106BAC00800F0BD1994B1B6803F40033002B5BD087
:106BBC007B685B68002B57D101233FE27B685B68E5
:106BCC00B3F5803F06D1914B1B68904A43F4803358
:106BDC0013601DE07B685B68B3F5A02F0CD18B4B69
:106BEC001B688A4A43F480231360884B1B68874ACE
:106BFC0043F4803313600BE0844B1B68834A23F40B
:106C0C0080331360814B1B68804A23F4802313600C
:106C1C007B685B68002B13D0FEF78AFB386108E0B9
:106C2C00FEF786FB02463B69D31A642B01D903237A
:106C3C0004E2764B1B6803F40033002BF0D014E015
:106C4C00FEF776FB386108E0FEF772FB02463B6903
:106C5C00D31A642B01D90323F0E16C4B1B6803F4AA
:106C6C000033002BF0D100E000BF7B681B6803F001
:106C7C000203002B63D0654B9B6803F00C03002BC5
:106C8C000BD0624B9B6803F00C03082B1CD15F4BA1
:106C9C005B6803F48003002B16D15C4B1B6803F07C
:106CAC000203002B05D07B68DB68012B01D001238C
:106CBC00C4E1564B1B6823F0F8027B681B69DB00B0
:106CCC00524913430B603AE07B68DB68002B20D001
:106CDC004F4B01221A60FEF72BFB386108E0FEF7E0
:106CEC0027FB02463B69D31A022B01D90323A5E1EA
:106CFC00464B1B6803F00203002BF0D0434B1B6880
:106D0C0023F0F8027B681B69DB00404913430B60DE
:106D1C0015E03F4B00221A60FEF70AFB386108E0D1
:106D2C00FEF706FB02463B69D31A022B01D903235B
:106D3C0084E1364B1B6803F00203002BF0D17B6817
:106D4C001B6803F00803002B30D07B685B69002BB9
:106D5C0016D0304B01221A60FEF7EAFA386108E0CF
:106D6C00FEF7E6FA02463B69D31A022B01D903233C
:106D7C0064E1264B5B6F03F00203002BF0D015E0AF
:106D8C00244B00221A60FEF7D3FA386108E0FEF7B4
:106D9C00CFFA02463B69D31A022B01D903234DE1EA
:106DAC001A4B5B6F03F00203002BF0D17B681B685E
:106DBC0003F00403002B00F0A0800023FB75134BA1
:106DCC001B6C03F08053002B0FD10023BB600F4BC7
:106DDC001B6C0E4A43F0805313640C4B1B6C03F07A
:106DEC008053BB60BB680123FB750B4B1B6803F422
:106DFC008073002B21D1084B1B68074A43F4807326
:106E0C001360FEF795FA386111E000BF00380240BC
:106E1C0000004742800E474200700040FEF788FA9F
:106E2C0002463B69D31A022B01D9032306E1854B99
:106E3C001B6803F48073002BF0D07B689B68012BDC
:106E4C0006D1814B1B6F804A43F0010313671CE092
:106E5C007B689B68052B0CD17B4B1B6F7A4A43F0EC
:106E6C0004031367784B1B6F774A43F001031367D6
:106E7C000BE0754B1B6F744A23F001031367724BC5
:106E8C001B6F714A23F0040313677B689B68002B0C
:106E9C0015D0FEF74DFA38610AE0FEF749FA0246C2
:106EAC003B69D31A41F28832934201D90323C5E0DE
:106EBC00654B1B6F03F00203002BEED014E0FEF7C2
:106ECC0037FA38610AE0FEF733FA02463B69D31A07
:106EDC0041F28832934201D90323AFE05A4B1B6F26
:106EEC0003F00203002BEED1FB7D012B05D1564B99
:106EFC001B6C554A23F0805313647B689B69002BF1
:106F0C0000F09B80504B9B6803F00C03082B5CD06B
:106F1C007B689B69022B41D14C4B00221A60FEF717
:106F2C0007FA386108E0FEF703FA02463B69D31A08
:106F3C00022B01D9032381E0434B1B6803F0007340
:106F4C00002BF0D17B68DA697B681B6A1A437B687B
:106F5C005B6A9B011A437B689B6A5B08013B1B04C1
:106F6C001A437B68DB6A1B06374913434B60374B6C
:106F7C0001221A60FEF7DCF9386108E0FEF7D8F957
:106F8C0002463B69D31A022B01D9032356E02E4B40
:106F9C001B6803F00073002BF0D04EE02B4B00224B
:106FAC001A60FEF7C5F9386108E0FEF7C1F9024630
:106FBC003B69D31A022B01D903233FE0224B1B68F8
:106FCC0003F00073002BF0D137E07B689B69012B39
:106FDC0001D1012332E01C4B5B68FB607B689B6931
:106FEC00012B28D0FB6803F480027B68DB699A4292
:106FFC0021D1FB6803F03F027B681B6A9A421AD1CD
:10700C00FA6847F6C07313407A68526A9201934249
:10701C0011D1FB6803F440327B689B6A5B08013B2F
:10702C001B049A4207D1FB6803F070627B68DB6A31
:10703C001B069A4201D0012300E0002318461837A2
:10704C00BD4680BD007000400038024060004742E1
:10705C0080B584B000AF786039607B68002B01D1BB
:10706C000123CCE0684B1B6803F00F033A689A428B
:10707C000CD9654B3A68D2B21A70634B1B6803F09B
:10708C000F033A689A4201D00123B8E07B681B6871
:10709C0003F00203002B20D07B681B6803F0040371
:1070AC00002B05D0594B9B68584A43F4E05393602E
:1070BC007B681B6803F00803002B05D0534B9B68BF
:1070CC00524A43F460439360504B9B6823F0F002A8
:1070DC007B689B684D4913438B607B681B6803F08E
:1070EC000103002B44D07B685B68012B07D1474B15
:1070FC001B6803F40033002B19D101237FE07B685C
:10710C005B68022B03D07B685B68032B07D13F4B7A
:10711C001B6803F00073002B09D101236FE03B4B7C
:10712C001B6803F00203002B01D1012367E0374BEE
:10713C009B6823F003027B685B68344913438B60C4
:10714C00FEF7F6F8F8600AE0FEF7F2F80246FB6884
:10715C00D31A41F28832934201D903234FE02B4BCF
:10716C009B6803F00C027B685B689B009A42EBD136
:10717C00254B1B6803F00F033A689A420CD2224B42
:10718C003A68D2B21A70204B1B6803F00F033A68AE
:10719C009A4201D0012332E07B681B6803F00403A0
:1071AC00002B08D0194B9B6823F4E0527B68DB68FA
:1071BC00164913438B607B681B6803F00803002B94
:1071CC0009D0124B9B6823F460427B681B69DB007F
:1071DC000E4913438B6000F021F801460B4B9B6862
:1071EC001B0903F00F030A4AD35C21FA03F3094A83
:1071FC001360094B1B681846FEF756F80023184617
:10720C001037BD4680BD00BF003C02400038024034
:10721C00F48900081000002014000020F0B585B09F
:10722C0000AF00237B600023FB6000233B60002346
:10723C00BB60504B9B6803F00C03042B07D0082B4E
:10724C0008D0002B40F08D804B4BBB608CE04B4B3F
:10725C00BB6089E0474B5B6803F03F037B60454BA9
:10726C005B6803F48003002B23D0424B5B689B09C3
:10727C004FF0000440F2FF114FF0000203EA010549
:10728C0004EA02063D4A02FB06F1002202FB05F26B
:10729C000A443A49A5FB0101531819467B684FF083
:1072AC0000041A462346FCF79BFF03460C46FB6082
:1072BC0049E0304B5B689B094FF0000440F2FF1132
:1072CC004FF0000203EA010504EA020629463246A1
:1072DC004FF000034FF00004540144EAD1644B0119
:1072EC0019462246491B62EB06024FF000034FF091
:1072FC000004940144EA91648B015B1A64EB020470
:10730C004FF000014FF00002E20042EA5372D90044
:10731C000B4614465B1944EB06044FF000014FF08A
:10732C000002A20242EA935299020B4614461846F6
:10733C0021467B684FF000041A462346FCF750FFA9
:10734C0003460C46FB600B4B5B681B0C03F0030302
:10735C0001335B003B60FA683B68B2FBF3F3BB6044
:10736C0002E0054BBB6000BFBB6818461437BD4636
:10737C00F0BD00BF003802400024F40040787D01CD
:10738C0080B400AF034B1B681846BD465DF8047B08
:10739C00704700BF1000002080B500AFFFF7F0FF72
:1073AC000146054B9B689B0A03F00703034AD35C19
:1073BC0021FA03F3184680BD00380240048A000805
:1073CC0080B500AFFFF7DCFF0146054B9B685B0BFC
:1073DC0003F00703034AD35C21FA03F3184680BD7C
:1073EC0000380240048A000880B586B000AF78608F
:1073FC0000237B6100233B617B681B6803F0010366
:10740C00002B0BD17B681B6803F00203002B05D10A
:10741C007B681B6803F04003002B75D0AD4B00223A
:10742C001A60FDF785FF786108E0FDF781FF0246E1
:10743C007B69D31A022B01D903238BE1A64B1B6862
:10744C0003F00063002BF0D17B681B6803F0010391
:10745C00002B09D07B685B689A017B689B681B07D3
:10746C009D491343C1F884307B681B6803F0020309
:10747C00002B1FD0984BD3F884301B0F03F007035D
:10748C003B617B685B689A017B68DB681B061A436F
:10749C003B691B0790491343C1F884308E4BD3F8DA
:1074AC008C3023F01F027B68DB69013B8A49134354
:1074BC00C1F88C307B681B6803F04003002B0DD0A7
:1074CC007B685B689A017B68DB681B061A437B68E8
:1074DC009B681B0780491343C1F884307D4B012204
:1074EC001A60FDF725FF786108E0FDF721FF0246E1
:1074FC007B69D31A022B01D903232BE1764B1B6832
:10750C0003F00063002BF0D07B681B6803F00403CE
:10751C00002B05D17B681B6803F00803002B79D086
:10752C006E4B00221A60FDF703FF786108E0FDF74F
:10753C00FFFE02467B69D31A022B01D9032309E112
:10754C00654B1B6803F00053B3F1005FEFD07B6811
:10755C001B6803F00403002B20D05F4BD3F888305A
:10756C001B0F03F007033B617B681B699A017B6867
:10757C005B691B061A433B691B0757491343C1F848
:10758C008830554BD3F88C3023F4F8527B681B6A47
:10759C00013B1B0250491343C1F88C307B681B68BC
:1075AC0003F00803002B1ED04B4BD3F888301B0E76
:1075BC0003F00F033B617B681B699A013B691B0657
:1075CC001A437B689B691B0743491343C1F88830F6
:1075DC00414BD3F88C3023F440327B685B6A3E49D4
:1075EC001343C1F88C303D4B01221A60FDF7A0FE0D
:1075FC00786108E0FDF79CFE02467B69D31A022BEA
:10760C0001D90323A6E0344B1B6803F00053B3F1FC
:10761C00005FEFD17B681B6803F02003002B00F0A8
:10762C008D800023FB602C4B1B6C2B4A43F080534A
:10763C001364294B1B6C03F08053FB60FB68284BD5
:10764C001B68274A43F480731360FDF771FE786161
:10765C0008E0FDF76DFE02467B69D31A022B01D9B7
:10766C00032377E01E4B1B6803F48073002BF0D0D0
:10767C00194B1B6F03F440733B613B69002B39D0F2
:10768C007B689B6A03F440733A699A4232D0124B7E
:10769C001B6F23F440733B61124B01221A60114B98
:1076AC0000221A600C4A3B6913670B4B1B6F03F0EB
:1076BC000103012B1ED1FDF73BFE786114E0FDF7B1
:1076CC0037FE02467B69D31A41F2883293420BD9BA
:1076DC0003233FE0680047420038024070004742F5
:1076EC0000700040400E47421C4B1B6F03F002031E
:1076FC00002BE4D07B689B6A03F44073B3F5407FA6
:10770C000DD1164B9B6823F4F8127B689B6A23F00F
:10771C00704323F44073114913438B6005E00F4B06
:10772C009B680E4A23F4F81393600C4B1A6F7B681A
:10773C009B6AC3F30B03094913430B677B681B68F4
:10774C0003F01003002B04D07B6893F82C20044B1F
:10775C001A60002318461837BD4680BD0038024019
:10776C00E011474280B584B000AF78600123FB7311
:10777C007B68002B01D1012366E07B685B7FDBB269
:10778C00002B05D17B6800221A777868FDF7EAFB9D
:10779C007B6802225A777B681B68CA225A627B6814
:1077AC001B6853225A62786800F07AF80346FB7320
:1077BC00FB7B002B2CD17B681B689B687A6812685A
:1077CC0023F4E00323F0400393607B681B68996803
:1077DC007B685A687B681B691A437B685B691A4330
:1077EC007B681B680A439A607B681B687A68D2685E
:1077FC001A617B681B6819697B689B681A047B6833
:10780C001B680A431A61786800F081F80346FB7321
:10781C00FB7B002B13D17B681B681A6C7B681B6885
:10782C0022F480221A647B681B68196C7B689A6945
:10783C007B681B680A431A647B6801225A777B6851
:10784C001B68FF225A62FB7B18461037BD4680BD71
:10785C0080B584B000AF78600023FB607B681B6848
:10786C00DA687B681B6822F0A002DA60FDF760FD25
:10787C00F86009E0FDF75CFD0246FB68D31AB3F52E
:10788C007A7F01D9032307E07B681B68DB6803F070
:10789C002003002BEED0002318461037BD4680BDC8
:1078AC0080B584B000AF78600023BB600023FB730D
:1078BC007B681B68DB6803F04003002B22D17B68DC
:1078CC001B68DA687B681B6842F08002DA60FDF79F
:1078DC002FFDB8600CE0FDF72BFD0246BB68D31AF8
:1078EC00B3F57A7F04D97B6804225A770123FB73A2
:1078FC007B681B68DB6803F04003002B02D1FB7B29
:10790C00012BE8D1FB7B18461037BD4680BD80B5F6
:10791C0084B000AF78600023FB737B681B68DA6867
:10792C007B681B6822F08002DA607B681B689B68AE
:10793C0003F02003002B0AD17868FFF789FF034678
:10794C00002B04D07B6804225A770123FB73FB7B4A
:10795C0018461037BD4680BD80B487B000AFF860C4
:10796C00B9607A6000237B61FB681B6850337B61D4
:10797C00BB689B007A6913447B617B697A681A60E7
:10798C0000BF1C37BD465DF8047B704780B485B0E2
:10799C0000AF786039600023FB607B681B68503354
:1079AC00FB603B689B00FA681344FB60FB681B6838
:1079BC0018461437BD465DF8047B704780B582B01D
:1079CC0000AF78607B68002B01D101233FE07B681E
:1079DC0093F83D30DBB2002B06D17B68002283F894
:1079EC003C207868FDF7E8FA7B68242283F83D2078
:1079FC007B681B68DA687B681B6822F40052DA60CB
:107A0C00786800F029F97B681B681A697B681B6829
:107A1C0022F490421A617B681B685A697B681B6868
:107A2C0022F02A025A617B681B68DA687B681B6843
:107A3C0042F40052DA607B6800221A647B682022D0
:107A4C0083F83D207B68202283F83E2000231846D3
:107A5C000837BD4680BD80B58AB002AFF860B9600A
:107A6C003B601346FB8000237B61FB6893F83D3041
:107A7C00DBB2202B7CD1BB68002B02D0FB88002B07
:107A8C0001D1012375E0FB6893F83C30012B01D147
:107A9C0002236EE0FB68012283F83C20FB68002285
:107AAC001A64FB68212283F83D20FDF741FC7861C4
:107ABC00FB68FA889A84FB68FA88DA84FB689B680E
:107ACC00B3F5805F08D1FB681B69002B04D1002340
:107ADC00FB61BB68BB6103E0BB68FB610023BB615E
:107AEC00FB68002283F83C202AE03B6800937B690A
:107AFC0000228021F86800F040F80346002B01D0EA
:107B0C00032336E0FB69002B0BD1BB691B881A469B
:107B1C00FB681B68C2F308025A60BB690233BB6185
:107B2C0007E0FB691A78FB681B685A60FB69013334
:107B3C00FB61FB68DB8C9BB2013B9AB2FB68DA847D
:107B4C00FB68DB8C9BB2002BCFD13B6800937B692D
:107B5C0000224021F86800F010F80346002B01D0F9
:107B6C00032306E0FB68202283F83D20002300E07D
:107B7C00022318462037BD4680BD80B590B000AFBB
:107B8C00F860B9603B601346FB7150E0BB6CB3F11D
:107B9C00FF3F4CD0BB6C002B07D0FDF7C9FB024656
:107BAC003B68D31ABA6C9A4241D2FB681B680C33FF
:107BBC00BB62BB6A53E8003F7B627B6A23F4D073E1
:107BCC00FB63FB681B680C33FA6B7A633B63396BA2
:107BDC007A6B41E80023FB62FB6A002BE5D1FB6862
:107BEC001B6814337B617B6953E8003F3B613B6945
:107BFC0023F00103BB63FB681B681433BA6B3A6256
:107C0C00FB61F9693A6A41E80023BB61BB69002B4F
:107C1C00E5D1FB68202283F83D20FB68202283F805
:107C2C003E20FB68002283F83C2003230FE0FB6816
:107C3C001B681A68BB681340BA689A420CBF0123D0
:107C4C000023DBB21A46FB799A429FD000231846D8
:107C5C004037BD4680BD00002DE9F04F85B000AF28
:107C6C0078607B681B681B6923F440517B68DA6879
:107C7C007B681B680A431A617B689A687B681B697E
:107C8C001A437B685B691A437B68DB691343BB60EF
:107C9C007B681B68DB6823F4164323F00C037A68BB
:107CAC001268B9680B43D3607B681B685B6923F46B
:107CBC0040717B689A697B681B680A435A617B68D0
:107CCC001B68D04A934204D07B681B68CE4A93420F
:107CDC0003D1FFF775FBF86002E0FFF75DFBF8607E
:107CEC007B68DB69B3F5004F40F0BA80FB681D463A
:107CFC004FF00006A846B14618EB080349EB0904FF
:107D0C009846A14618EB050849EB06094FF000010F
:107D1C004FF000024FEAC90242EA58724FEAC8011A
:107D2C008846914618EB050049EB06017B685B68B9
:107D3C001D464FF000066B1946EB06041A46234607
:107D4C00FCF74EFA03460C461A46B04BA3FB022333
:107D5C005B094FEA0318FB681D464FF00006A94665
:107D6C00B24619EB09034AEB0A049946A24619EBF1
:107D7C0005094AEB060A4FF000014FF000024FEAEA
:107D8C00CA0242EA59724FEAC9018946924619EB76
:107D9C0005004AEB06017B685B681D464FF0000648
:107DAC006B1946EB06041A462346FCF719FA0346F0
:107DBC000C461A46954BA3FB02135B09642101FB8D
:107DCC0003F3D31ADB003233904AA2FB03235B0983
:107DDC005B0003F4F8739844FB681D464FF00006F3
:107DEC00A946B24619EB09034AEB0A049946A24686
:107DFC0019EB05094AEB060A4FF000014FF000029F
:107E0C004FEACA0242EA59724FEAC90189469246C0
:107E1C0019EB05004AEB06017B685B681D464FF0C9
:107E2C0000066B1946EB06041A462346FCF7D8F9F4
:107E3C0003460C461A46754BA3FB02135B096421DF
:107E4C0001FB03F3D31ADB003233704AA2FB03238A
:107E5C005B0903F007027B681B6842449A60CCE024
:107E6C00FB689A464FF0000BD046D94618EB080336
:107E7C0049EB09049846A14618EB0A0849EB0B0993
:107E8C004FF000014FF000024FEAC90242EA58726B
:107E9C004FEAC801884691461AEB08054BEB0906D8
:107EAC007B685B6819464FF000024FF000034FF0FF
:107EBC000004940044EA91748B001A462346284629
:107ECC003146FCF78DF903460C461A464F4BA3FB83
:107EDC0002235B094FEA0318FB689B464FF0000C2A
:107EEC00D946E24619EB09034AEB0A049946A24625
:107EFC0019EB0B094AEB0C0A4FF000014FF0000292
:107F0C004FEACA0242EA59724FEAC90189469246BF
:107F1C001BEB09054CEB0A067B685B6819464FF0B6
:107F2C0000024FF000034FF00004940044EA9174F7
:107F3C008B001A46234628463146FCF751F9034676
:107F4C000C461A46314BA3FB02135B09642101FB5F
:107F5C0003F3D31A1B0132332C4AA2FB03235B0914
:107F6C0003F0F0039844FB689B464FF0000CD94695
:107F7C00E24619EB09034AEB0A049946A24619EBAF
:107F8C000B094AEB0C0A4FF000014FF000024FEACC
:107F9C00CA0242EA59724FEAC901894692461BEB62
:107FAC0009054CEB0A067B685B6819464FF000022A
:107FBC004FF000034FF00004940044EA91748B00DE
:107FCC001A46234628463146FCF70AF903460C4666
:107FDC001A460E4BA3FB02135B09642101FB03F34E
:107FEC00D31A1B013233094AA2FB03235B0903F0AA
:107FFC000F027B681B6842449A6000BF1437BD4671
:10800C00BDE8F08F00100140001401401F85EB51BA
:10801C00014B1868704700BF1C00002070B50D4E56
:10802C000D4CA41BA4100025A54209D10B4E0C4CE1
:10803C0000F088FCA41BA4100025A54205D170BD3E
:10804C0056F8253098470135EEE756F82530984715
:10805C000135F2E7788A0008788A0008788A0008E7
:10806C007C8A000802440346934200D1704703F80F
:10807C00011BF9E770B50E46054618B183690BB9BB
:10808C0000F00CFAAB69AC6813B9284600F006FA9C
:10809C00234B9C4217D16C68A3891B071DD5236900
:1080AC00DBB1013EA36816F8011F013BA360E9B9DF
:1080BC00002B2EDA22460A21284600F03FF8013028
:1080CC0011D00A2011E0174B9C4201D1AC68E3E7B8
:1080DC00154B9C4208BFEC68DEE72146284600F0B1
:1080EC007FF80028DDD04FF0FF3070BD002B04DA94
:1080FC00A2699A4206DC0A2904D023685A1C226021
:10810C001970CFE72246284600F018F80130C9D183
:10811C00E9E723680A205A1C22601870E5E700BFC3
:10812C00308A0008508A0008108A0008024B014669
:10813C001868FFF79FBF00BF1C000020F8B50E4663
:10814C001446054618B183690BB900F0A7F9214B09
:10815C009C422AD16C68A369A360A3891A072ED507
:10816C00236963B323692068C01A6369F6B283423A
:10817C00374604DC2146284600F026F928BBA368C4
:10818C00013BA36023685A1C22601E706369013096
:10819C00834204D0A389DB0719D50A2E17D12146B7
:1081AC00284600F011F990B10FE00B4B9C4201D125
:1081BC00AC68D0E7094B9C4208BFEC68CBE7214682
:1081CC00284600F00DF80028CCD04FF0FF37384689
:1081DC00F8BD00BF308A0008508A0008108A0008D9
:1081EC00324B70B51D6806460C4625B1AB6913B908
:1081FC00284600F053F92E4B9C420FD16C68B4F911
:10820C000C309AB215072CD4D00611D40922326046
:10821C0043F04003A3814FF0FF303EE0254B9C42DE
:10822C0001D1AC68EBE7244B9C4208BFEC68E6E755
:10823C00510712D5616B41B104F14403994202D04C
:10824C00304600F019FA00236363A38923F024035A
:10825C00A3810023636023692360A38943F008038F
:10826C00A38123694BB9A38903F42073B3F5007F71
:10827C0003D02146304600F0BFF9A28912F0010369
:10828C000CD00023A36063695B42A361236953B9DB
:10829C00B4F90C3013F08000BAD170BD920758BFFE
:1082AC006369A360F2E70020F7E700BF1C00002021
:1082BC00308A0008508A0008108A00088A892DE943
:1082CC00F041054610070C4658D44B68002B05DCD2
:1082DC000B6C002B02DC0020BDE8F081E66A002E5E
:1082EC00F9D0002312F480522F68216A2B6032D00F
:1082FC00606DA3895A0705D56368C01A636B0BB10F
:10830C00236CC01A00230246E66A216A2846B0474D
:10831C00431CA38906D129681D2948D8294ACA407B
:10832C00D60744D500226260D9042269226004D5A4
:10833C00421C01D12B6803B96065616B2F60002969
:10834C00C9D004F14403994202D0284600F094F9B4
:10835C0000206063C0E701232846B047411CC8D108
:10836C002B68002BC5D01D2B01D0162B01D12F60F3
:10837C00B1E7A38943F04003A381ADE70F69002F58
:10838C00A9D093070E6808BF4B690F6018BF002374
:10839C00A6EB07088B60B8F1000F9CDD43463A460C
:1083AC00216AA66A2846B047002806DCA38943F058
:1083BC004003A3814FF0FF308EE70744A8EB000881
:1083CC00E9E700BF0100402038B50B6905460C46B3
:1083DC00DBB118B183690BB900F060F80C4B9C420F
:1083EC0009D16C68B4F90C307BB121462846BDE844
:1083FC003840FFF763BF074B9C4201D1AC68F1E7F3
:10840C00054B9C4208BFEC68ECE7002038BD00BF70
:10841C00308A0008508A0008108A0008002310B522
:10842C000446C0E90033836081814366C281C0E9A0
:10843C0004338361194608225C30FFF713FE054BA9
:10844C006362054BA362054BE362054B2462236315
:10845C0010BD00BFF5870008178800084F8800087A
:10846C0073880008014900F085B800BFD583000867
:10847C0070B54A1E682555430E4605F1740100F08F
:10848C0049F9044640B10021C0E900160C30A06047
:10849C0005F16802FFF7E6FD204670BD836910B553
:1084AC00044633BBC0E912330365124B124A1B68F6
:1084BC008262984204BF0123836100F01FF8606060
:1084CC00204600F01BF8A060204600F017F80022B0
:1084DC00E06004216068FFF7A1FF01220921A06878
:1084EC00FFF79CFF02221221E068FFF797FF0123A0
:1084FC00A36110BD0C8A000871840008F8B51B4BF1
:10850C001E68B369074613B93046FFF7C7FF4836F4
:10851C00D6E90134013B03D5336833B13668F7E74C
:10852C00B4F90C506DB16834F4E704213846FFF708
:10853C009FFF30600028F1D10C233B60044620469D
:10854C00F8BD0B4B6566C4E90055A560C4E903355D
:10855C00C4E905550822294604F15C00FFF782FDA9
:10856C00C4E90D55C4E91255E9E700BF0C8A0008AF
:10857C000100FFFF2DE9F8438046894600F14804CD
:10858C00002614B93046BDE8F883D4E90175013FE3
:10859C0001D52468F5E7AB89012B07D9B5F90E3065
:1085AC00013303D029464046C84706436835EEE7F9
:1085BC0070B50E46B1F90E10002996B014461D4642
:1085CC0007DA00232B60B3891A0610D44FF48063AA
:1085DC000EE06A4600F06EF90028F2DB019A02F414
:1085EC007042A2F500535A425A412A60EEE74023EA
:1085FC000020236016B070BD8B8973B59D070646AD
:10860C000C4607D504F14703236023610123636102
:10861C0002B070BD01AB6A46FFF7CAFF0099054670
:10862C00304600F077F848B9B4F90C309A05EFD41D
:10863C0023F0030343F00203A381E3E70D4BB36282
:10864C00A389206043F08003A381009B6361019B9D
:10865C0020615BB1B4F90E10304600F03DF928B141
:10866C00A38923F0030343F00103A381A3891D43D2
:10867C00A581CDE77184000838B50546002945D0A1
:10868C0051F8043C0C1F002BB8BFE41800F046F95D
:10869C001F4A1368104633B9636014602846BDE85E
:1086AC00384000F03CB9A3420CD9216862189342BF
:1086BC0004BF1A685B68636004BF521822600460D0
:1086CC00ECE713465A680AB1A242FAD9196858184D
:1086DC00A0420BD120680144581882421960DDD1A8
:1086EC00106852685A6001441960D7E702D90C230C
:1086FC002B60D3E7206821188A4204BF11685268A6
:10870C00626004BF091821605C60C7E738BD00BF18
:10871C00A400002070B5CD1C25F0030508350C2DE8
:10872C0038BF0C25002D064601DBA94203D90C23CA
:10873C003360002070BD00F0F1F8214A1468214626
:10874C0091B9204C23681BB9304600F03DF82060ED
:10875C002946304600F038F8431C24D10C233360F2
:10876C00304600F0DCF8E4E70B685B1B18D40B2BED
:10877C000FD90B60CD50CC18304600F0D0F804F176
:10878C000B00231D20F00700C31AD3D05A42E2502D
:10879C00D0E78C424B6816BF636013600C46EBE766
:1087AC000C464968CCE7C41C24F00304A04205D055
:1087BC00211A304600F008F80130CFD02560DBE7F5
:1087CC00A4000020A800002038B5064C0023054664
:1087DC0008462360FCF7D0FC431C02D1236803B18C
:1087EC002B6038BDA801002010B50C46B1F90E1055
:1087FC0000F096F80028ABBF636DA3891B1823F417
:10880C008053ACBF6365A38110BD2DE9F0411F46B9
:10881C008B89DB0505460C46164605D5022300223E
:10882C00B1F90E1000F068F8A389B4F90E1023F416
:10883C008053A38132463B462846BDE8F04100F008
:10884C0017B810B50C46B1F90E1000F055F8431CD2
:10885C00A38915BF606523F4805343F48053A3812F
:10886C0018BFA38110BDB1F90E1000F013B80000B1
:10887C0038B5074C054608461146002222601A46B8
:10888C00FCF729FC431C02D1236803B12B6038BDD3
:10889C00A801002038B5064C002305460846236085
:1088AC00FCF735FC431C02D1236803B12B6038BDA7
:1088BC00A801002038B5074C002305460846114690
:1088CC002360FCF730FC431C02D1236803B12B60FE
:1088DC0038BD00BFA801002038B5064C0023054662
:1088EC0008462360FCF72FFC431C02D1236803B11C
:1088FC002B6038BDA801002038B5074C054608464A
:10890C001146002222601A46FCF728FC431C02D1B7
:10891C00236803B12B6038BDA80100207047704755
:10892C0038B5074C054608461146002222601A4607
:10893C00FCF7B4FB431C02D1236803B12B6038BD98
:10894C00A8010020F8B500BFF8BC08BC9E467047D3
:0C895C00F8B500BFF8BC08BC9E46704790
:10896800426F6F746C6F61646572205374617274C6
:1089780065640D00426F6F746C6F61646572206E80
:108988006F726D616C204D4F44450D004F5320466A
:1089980041494C45440D0000476F6E6E61204A7591
:1089A8006D7020746F204170706C69636174696FB9
:1089B8006E0D000050726F6772616D2052756E6E99
:1089C800696E6720696E2042616E6B2031200D0050
:1089D80050726F6772616D2052756E6E696E672096
:1089E800696E2042616E6B2032200D00000000008D
:1089F8000000000001020304060708090000000047
:108A08000102030420000020000000000000000014
:108A1800000000000000000000000000000000004E
:108A2800000000000000000000000000000000003E
:108A3800000000000000000000000000000000002E
:108A4800000000000000000000000000000000001E
:108A5800000000000000000000000000000000000E
:088A6800000000000000000006
:088A7000ACB7FF7F010000001C
:048A7800D1410008E0
:048A7C00AD41000800
:108A80005148555610000000000001080100000088
:108A90000024F4001000000001000000200000206D
:108AA00000000000308A0008508A0008108A000880
:108AB00000000000000000000000000000000000B6
:108AC00000000000000000000000000000000000A6
:108AD0000000000000000000000000000000000096
:108AE0000000000000000000000000000000000086
:108AF0000000000000000000000000000000000076
:040000050800521D80
:00000001FF
